:020000040800F2
:100000000000022011020008CB010008CD01000809
:10001000CF010008D1010008D30100080000000052
:10002000000000000000000000000000D5010008F2
:10003000D701000800000000D9010008DB0100081A
:100040006102000861020008610200086102000804
:1000500061020008610200086102000861020008F4
:1000600061020008610200086102000861020008E4
:1000700061020008610200086102000861020008D4
:1000800061020008610200086102000861020008C4
:1000900061020008610200086102000861020008B4
:1000A00061020008610200086102000861020008A4
:1000B0006102000861020008610200086102000894
:1000C0006102000861020008610200086102000884
:1000D0006102000861020008610200086102000874
:1000E0006102000861020008610200086102000864
:1000F0006102000861020008610200086102000854
:100100006102000861020008610200086102000843
:100110006102000861020008610200086102000833
:100120006102000861020008610200086102000823
:100130006102000861020008610200086102000813
:100140006102000861020008610200086102000803
:1001500061020008610200086102000861020008F3
:1001600061020008610200086102000861020008E3
:10017000610200086102000861020008000000003E
:080180006102000861020008A1
:1001880010B5054C237833B9044B13B10448AFF3C9
:1001980000800123237010BD04000020000000002F
:1001A800AC02000808B5034B1BB103490348AFF381
:1001B800008008BD0000000008000020AC02000814
:1001C800FEE7FEE7FEE7FEE7FEE7FEE7704770475B
:1001D800704708B500F002F808BD0000034A11682E
:1001E800034B1B780B441360704700BF20000020AE
:1001F80000000020034AD2F8883043F47003C2F8A4
:100208008830704700ED00E0DFF834D00D480E4923
:100218000E4A002302E0D458C4500433C4188C4258
:10022800F9D30B4A0B4C002301E013600432A242BD
:10023800FBD3FFF7DFFF00F011F8FFF7C1FF7047AE
:10024800000002200000002004000020CC0200086A
:100258000400002024000020FEE7000070B50D4DCA
:100268000D4C641BA4100026A64209D10B4D0C4C62
:1002780000F018F8641BA4100026A64205D170BD32
:1002880055F8043B98470136EEE755F8043B984784
:100298000136F2E7C4020008C4020008C4020008DC
:1002A800C8020008F8B500BFF8BC08BC9E467047F5
:0C02B800F8B500BFF8BC08BC9E467047BB
:0402C400AD01000880
:0402C80089010008A0
:0402CC00010000002D
:0400000508000211DC
:00000001FF
